{
  "contractName": "Posts",
  "abi": [
    {
      "anonymous": false,
      "inputs": [
        {
          "indexed": false,
          "internalType": "string",
          "name": "eventName",
          "type": "string"
        },
        {
          "indexed": false,
          "internalType": "uint256",
          "name": "postid",
          "type": "uint256"
        },
        {
          "components": [
            {
              "internalType": "uint256",
              "name": "id",
              "type": "uint256"
            },
            {
              "components": [
                {
                  "internalType": "address",
                  "name": "transaction_address",
                  "type": "address"
                },
                {
                  "internalType": "string",
                  "name": "display_name",
                  "type": "string"
                }
              ],
              "internalType": "struct Posts.Author",
              "name": "author",
              "type": "tuple"
            },
            {
              "internalType": "string",
              "name": "title",
              "type": "string"
            },
            {
              "internalType": "string",
              "name": "description",
              "type": "string"
            },
            {
              "internalType": "uint256",
              "name": "created_at",
              "type": "uint256"
            },
            {
              "internalType": "bool",
              "name": "available",
              "type": "bool"
            }
          ],
          "indexed": false,
          "internalType": "struct Posts.Post",
          "name": "post",
          "type": "tuple"
        }
      ],
      "name": "ReceiveComment",
      "type": "event"
    },
    {
      "anonymous": false,
      "inputs": [
        {
          "indexed": false,
          "internalType": "string",
          "name": "eventName",
          "type": "string"
        },
        {
          "components": [
            {
              "internalType": "uint256",
              "name": "id",
              "type": "uint256"
            },
            {
              "components": [
                {
                  "internalType": "address",
                  "name": "transaction_address",
                  "type": "address"
                },
                {
                  "internalType": "string",
                  "name": "display_name",
                  "type": "string"
                }
              ],
              "internalType": "struct Posts.Author",
              "name": "author",
              "type": "tuple"
            },
            {
              "internalType": "string",
              "name": "title",
              "type": "string"
            },
            {
              "internalType": "string",
              "name": "description",
              "type": "string"
            },
            {
              "internalType": "uint256",
              "name": "created_at",
              "type": "uint256"
            },
            {
              "internalType": "bool",
              "name": "available",
              "type": "bool"
            }
          ],
          "indexed": false,
          "internalType": "struct Posts.Post",
          "name": "post",
          "type": "tuple"
        }
      ],
      "name": "ReceivePost",
      "type": "event"
    },
    {
      "inputs": [],
      "name": "owner",
      "outputs": [
        {
          "internalType": "address",
          "name": "",
          "type": "address"
        }
      ],
      "stateMutability": "view",
      "type": "function",
      "constant": true
    },
    {
      "inputs": [
        {
          "internalType": "uint256",
          "name": "",
          "type": "uint256"
        }
      ],
      "name": "posts",
      "outputs": [
        {
          "internalType": "uint256",
          "name": "id",
          "type": "uint256"
        },
        {
          "components": [
            {
              "internalType": "address",
              "name": "transaction_address",
              "type": "address"
            },
            {
              "internalType": "string",
              "name": "display_name",
              "type": "string"
            }
          ],
          "internalType": "struct Posts.Author",
          "name": "author",
          "type": "tuple"
        },
        {
          "internalType": "string",
          "name": "title",
          "type": "string"
        },
        {
          "internalType": "string",
          "name": "description",
          "type": "string"
        },
        {
          "internalType": "uint256",
          "name": "created_at",
          "type": "uint256"
        },
        {
          "internalType": "bool",
          "name": "available",
          "type": "bool"
        }
      ],
      "stateMutability": "view",
      "type": "function",
      "constant": true
    },
    {
      "inputs": [],
      "name": "postsCounter",
      "outputs": [
        {
          "internalType": "uint256",
          "name": "",
          "type": "uint256"
        }
      ],
      "stateMutability": "view",
      "type": "function",
      "constant": true
    },
    {
      "inputs": [
        {
          "internalType": "string",
          "name": "_title",
          "type": "string"
        },
        {
          "internalType": "string",
          "name": "_description",
          "type": "string"
        },
        {
          "internalType": "string",
          "name": "_authorName",
          "type": "string"
        }
      ],
      "name": "NewPost",
      "outputs": [],
      "stateMutability": "nonpayable",
      "type": "function"
    }
  ],
  "bytecode": "0x60806040526000805533600160006101000a81548173ffffffffffffffffffffffffffffffffffffffff021916908373ffffffffffffffffffffffffffffffffffffffff16021790555034801561005557600080fd5b50610e22806100656000396000f3fe608060405234801561001057600080fd5b506004361061004c5760003560e01c80630b1e7f831461005157806351058392146100865780638da5cb5b146100a4578063afd9868c146100c2575b600080fd5b61006b600480360381019061006691906105fe565b6100de565b60405161007d969594939291906107b6565b60405180910390f35b61008e610329565b60405161009b919061082c565b60405180910390f35b6100ac61032f565b6040516100b99190610856565b60405180910390f35b6100dc60048036038101906100d791906109a6565b610355565b005b6002602052806000526040600020600091509050806000015490806001016040518060400160405290816000820160009054906101000a900473ffffffffffffffffffffffffffffffffffffffff1673ffffffffffffffffffffffffffffffffffffffff1673ffffffffffffffffffffffffffffffffffffffff16815260200160018201805461016d90610a7c565b80601f016020809104026020016040519081016040528092919081815260200182805461019990610a7c565b80156101e65780601f106101bb576101008083540402835291602001916101e6565b820191906000526020600020905b8154815290600101906020018083116101c957829003601f168201915b505050505081525050908060030180546101ff90610a7c565b80601f016020809104026020016040519081016040528092919081815260200182805461022b90610a7c565b80156102785780601f1061024d57610100808354040283529160200191610278565b820191906000526020600020905b81548152906001019060200180831161025b57829003601f168201915b50505050509080600401805461028d90610a7c565b80601f01602080910402602001604051908101604052809291908181526020018280546102b990610a7c565b80156103065780601f106102db57610100808354040283529160200191610306565b820191906000526020600020905b8154815290600101906020018083116102e957829003601f168201915b5050505050908060050154908060060160009054906101000a900460ff16905086565b60005481565b600160009054906101000a900473ffffffffffffffffffffffffffffffffffffffff1681565b600060405180604001604052803373ffffffffffffffffffffffffffffffffffffffff1681526020018381525090506040518060c0016040528060005481526020018281526020018581526020018481526020014281526020016001151581525060026000805481526020019081526020016000206000820151816000015560208201518160010160008201518160000160006101000a81548173ffffffffffffffffffffffffffffffffffffffff021916908373ffffffffffffffffffffffffffffffffffffffff1602179055506020820151816001019080519060200190610440929190610511565b505050604082015181600301908051906020019061045f929190610511565b50606082015181600401908051906020019061047c929190610511565b506080820151816005015560a08201518160060160006101000a81548160ff0219169083151502179055509050507f194544eb1ddeeaf8cf58547f831058493d12e8b596e6e73003285d41bc5e8e8660026000805481526020019081526020016000206040516104ec9190610d3f565b60405180910390a160008081548092919061050690610da3565b919050555050505050565b82805461051d90610a7c565b90600052602060002090601f01602090048101928261053f5760008555610586565b82601f1061055857805160ff1916838001178555610586565b82800160010185558215610586579182015b8281111561058557825182559160200191906001019061056a565b5b5090506105939190610597565b5090565b5b808211156105b0576000816000905550600101610598565b5090565b6000604051905090565b600080fd5b600080fd5b6000819050919050565b6105db816105c8565b81146105e657600080fd5b50565b6000813590506105f8816105d2565b92915050565b600060208284031215610614576106136105be565b5b6000610622848285016105e9565b91505092915050565b610634816105c8565b82525050565b600073ffffffffffffffffffffffffffffffffffffffff82169050919050565b60006106658261063a565b9050919050565b6106758161065a565b82525050565b600081519050919050565b600082825260208201905092915050565b60005b838110156106b557808201518184015260208101905061069a565b838111156106c4576000848401525b50505050565b6000601f19601f8301169050919050565b60006106e68261067b565b6106f08185610686565b9350610700818560208601610697565b610709816106ca565b840191505092915050565b600060408301600083015161072c600086018261066c565b506020830151848203602086015261074482826106db565b9150508091505092915050565b600082825260208201905092915050565b600061076d8261067b565b6107778185610751565b9350610787818560208601610697565b610790816106ca565b840191505092915050565b60008115159050919050565b6107b08161079b565b82525050565b600060c0820190506107cb600083018961062b565b81810360208301526107dd8188610714565b905081810360408301526107f18187610762565b905081810360608301526108058186610762565b9050610814608083018561062b565b61082160a08301846107a7565b979650505050505050565b6000602082019050610841600083018461062b565b92915050565b6108508161065a565b82525050565b600060208201905061086b6000830184610847565b92915050565b600080fd5b600080fd5b7f4e487b7100000000000000000000000000000000000000000000000000000000600052604160045260246000fd5b6108b3826106ca565b810181811067ffffffffffffffff821117156108d2576108d161087b565b5b80604052505050565b60006108e56105b4565b90506108f182826108aa565b919050565b600067ffffffffffffffff8211156109115761091061087b565b5b61091a826106ca565b9050602081019050919050565b82818337600083830152505050565b6000610949610944846108f6565b6108db565b90508281526020810184848401111561096557610964610876565b5b610970848285610927565b509392505050565b600082601f83011261098d5761098c610871565b5b813561099d848260208601610936565b91505092915050565b6000806000606084860312156109bf576109be6105be565b5b600084013567ffffffffffffffff8111156109dd576109dc6105c3565b5b6109e986828701610978565b935050602084013567ffffffffffffffff811115610a0a57610a096105c3565b5b610a1686828701610978565b925050604084013567ffffffffffffffff811115610a3757610a366105c3565b5b610a4386828701610978565b9150509250925092565b7f4e487b7100000000000000000000000000000000000000000000000000000000600052602260045260246000fd5b60006002820490506001821680610a9457607f821691505b60208210811415610aa857610aa7610a4d565b5b50919050565b7f726563656976655f706f73740000000000000000000000000000000000000000600082015250565b6000610ae4600c83610751565b9150610aef82610aae565b602082019050919050565b60008160001c9050919050565b6000819050919050565b6000610b24610b1f83610afa565b610b07565b9050919050565b610b34816105c8565b82525050565b600073ffffffffffffffffffffffffffffffffffffffff82169050919050565b6000610b6d610b6883610afa565b610b3a565b9050919050565b60008190508160005260206000209050919050565b60008154610b9681610a7c565b610ba08186610686565b94506001821660008114610bbb5760018114610bcd57610c00565b60ff1983168652602086019350610c00565b610bd685610b74565b60005b83811015610bf857815481890152600182019150602081019050610bd9565b808801955050505b50505092915050565b6000604083016000808401549050610c2081610b5a565b610c2d600087018261066c565b50600184018583036020870152610c448382610b89565b925050819250505092915050565b600060ff82169050919050565b6000610c72610c6d83610afa565b610c52565b9050919050565b610c828161079b565b82525050565b600060c083016000808401549050610c9f81610b11565b610cac6000870182610b2b565b50600184018583036020870152610cc38382610c09565b925050600384018583036040870152610cdc8382610b89565b925050600484018583036060870152610cf58382610b89565b92505060058401549050610d0881610b11565b610d156080870182610b2b565b5060068401549050610d2681610c5f565b610d3360a0870182610c79565b50819250505092915050565b60006040820190508181036000830152610d5881610ad7565b90508181036020830152610d6c8184610c88565b905092915050565b7f4e487b7100000000000000000000000000000000000000000000000000000000600052601160045260246000fd5b6000610dae826105c8565b91507fffffffffffffffffffffffffffffffffffffffffffffffffffffffffffffffff821415610de157610de0610d74565b5b60018201905091905056fea264697066735822122024917088544016d7744013eb23303190931ba785004b6a5a74a8c4b0b610eedb64736f6c63430008090033",
  "immutableReferences": {},
  "source": "// SPDX-License-Identifier: MIT\npragma solidity >=0.4.22 <0.9.0;\n\ncontract Posts {\n\n    uint256 public postsCounter = 0;\n    address public owner = msg.sender;\n    mapping(uint256 => Post) public posts;\n\n    struct Author {\n        address transaction_address;\n        string display_name;\n    }\n\n    struct Post {\n        uint256 id;\n        Author author;\n        string title;\n        string description;\n        uint256 created_at;\n        bool available;\n    }\n\n    event ReceivePost(string eventName, Post post);\n    event ReceiveComment(string eventName, uint256 postid, Post post);\n\n    function NewPost(string memory _title, string memory _description, string memory _authorName) public {\n        Author memory author = Author(msg.sender, _authorName);\n\n        posts[postsCounter] = Post(postsCounter, author, _title, _description, block.timestamp, true);\n\n        emit ReceivePost(\"receive_post\", posts[postsCounter]);\n\n        postsCounter++;\n    }\n}\n",
  "sourcePath": "/home/jean/Desktop/AForum/contract/contracts/Posts.sol",
  "compiler": {
    "name": "solc",
    "version": "0.8.9+commit.e5eed63a.Emscripten.clang"
  },
  "schemaVersion": "3.4.3",
  "updatedAt": "2021-10-09T20:46:43.129Z",
  "networkType": "ethereum",
  "devdoc": {
    "kind": "dev",
    "methods": {},
    "version": 1
  },
  "userdoc": {
    "kind": "user",
    "methods": {},
    "version": 1
  }
}